{
  "address": "0x5FbDB2315678afecb367f032d93F642f64180aa3",
  "abi": [
    {
      "inputs": [],
      "stateMutability": "nonpayable",
      "type": "constructor"
    },
    {
      "anonymous": false,
      "inputs": [
        {
          "indexed": false,
          "internalType": "uint256",
          "name": "timestamp",
          "type": "uint256"
        }
      ],
      "name": "StatisticsUpdated",
      "type": "event"
    },
    {
      "anonymous": false,
      "inputs": [
        {
          "indexed": true,
          "internalType": "address",
          "name": "user",
          "type": "address"
        },
        {
          "indexed": false,
          "internalType": "uint256",
          "name": "timestamp",
          "type": "uint256"
        }
      ],
      "name": "SurveySubmitted",
      "type": "event"
    },
    {
      "inputs": [],
      "name": "getAllStatistics",
      "outputs": [
        {
          "internalType": "uint256",
          "name": "range1Count",
          "type": "uint256"
        },
        {
          "internalType": "uint256",
          "name": "range2Count",
          "type": "uint256"
        },
        {
          "internalType": "uint256",
          "name": "range3Count",
          "type": "uint256"
        }
      ],
      "stateMutability": "view",
      "type": "function"
    },
    {
      "inputs": [],
      "name": "getIncomeRange",
      "outputs": [
        {
          "internalType": "uint8",
          "name": "",
          "type": "uint8"
        }
      ],
      "stateMutability": "view",
      "type": "function"
    },
    {
      "inputs": [
        {
          "internalType": "uint256",
          "name": "index",
          "type": "uint256"
        }
      ],
      "name": "getParticipantAtIndex",
      "outputs": [
        {
          "internalType": "address",
          "name": "",
          "type": "address"
        }
      ],
      "stateMutability": "view",
      "type": "function"
    },
    {
      "inputs": [],
      "name": "getRange1Count",
      "outputs": [
        {
          "internalType": "uint256",
          "name": "",
          "type": "uint256"
        }
      ],
      "stateMutability": "view",
      "type": "function"
    },
    {
      "inputs": [],
      "name": "getRange2Count",
      "outputs": [
        {
          "internalType": "uint256",
          "name": "",
          "type": "uint256"
        }
      ],
      "stateMutability": "view",
      "type": "function"
    },
    {
      "inputs": [],
      "name": "getRange3Count",
      "outputs": [
        {
          "internalType": "uint256",
          "name": "",
          "type": "uint256"
        }
      ],
      "stateMutability": "view",
      "type": "function"
    },
    {
      "inputs": [],
      "name": "getTimestamp",
      "outputs": [
        {
          "internalType": "uint256",
          "name": "",
          "type": "uint256"
        }
      ],
      "stateMutability": "view",
      "type": "function"
    },
    {
      "inputs": [],
      "name": "hasSurveyResponse",
      "outputs": [
        {
          "internalType": "bool",
          "name": "",
          "type": "bool"
        }
      ],
      "stateMutability": "view",
      "type": "function"
    },
    {
      "inputs": [],
      "name": "owner",
      "outputs": [
        {
          "internalType": "address",
          "name": "",
          "type": "address"
        }
      ],
      "stateMutability": "view",
      "type": "function"
    },
    {
      "inputs": [
        {
          "internalType": "uint8",
          "name": "_incomeRange",
          "type": "uint8"
        }
      ],
      "name": "submitSurvey",
      "outputs": [],
      "stateMutability": "nonpayable",
      "type": "function"
    },
    {
      "inputs": [],
      "name": "totalParticipants",
      "outputs": [
        {
          "internalType": "uint256",
          "name": "",
          "type": "uint256"
        }
      ],
      "stateMutability": "view",
      "type": "function"
    }
  ],
  "transactionHash": "0x21d5983d6a74d99eeccc15e86f813e4d111a1fb54a5c5da119212fe21e049a25",
  "args": [],
  "numDeployments": 1,
  "solcInputHash": "bf3c31497eba85aa0251e2f90404155e",
  "bytecode": "0x6080604052348015600e575f5ffd5b505f80546001600160a01b031916331790556105e88061002d5f395ff3fe608060405234801561000f575f5ffd5b50600436106100c4575f3560e01c806351eb45541161007d5780638da5cb5b116100585780638da5cb5b14610196578063a26dbf26146101b5578063d5517ce7146101be575f5ffd5b806351eb45541461013c57806353be0561146101745780638bbc8ced1461018e575f5ffd5b806324322d73116100ad57806324322d73146101085780632b8052e61461011057806347f8d04a14610118575f5ffd5b806305d428dd146100c8578063188ec356146100f2575b5f5ffd5b335f9081526004602052604090206002015460ff1660405190151581526020015b60405180910390f35b6100fa6101d3565b6040519081526020016100e9565b6002546100fa565b6001546100fa565b600154600254600354604080519384526020840192909252908201526060016100e9565b61014f61014a366004610565565b61024f565b60405173ffffffffffffffffffffffffffffffffffffffff90911681526020016100e9565b61017c6102dc565b60405160ff90911681526020016100e9565b6003546100fa565b5f5461014f9073ffffffffffffffffffffffffffffffffffffffff1681565b6100fa60065481565b6101d16101cc36600461057c565b610353565b005b335f9081526004602052604081206002015460ff166102395760405162461bcd60e51b815260206004820152601860248201527f4e6f2073757276657920726573706f6e736520666f756e64000000000000000060448201526064015b60405180910390fd5b50335f9081526004602052604090206001015490565b6005545f9082106102a25760405162461bcd60e51b815260206004820152601360248201527f496e646578206f7574206f6620626f756e6473000000000000000000000000006044820152606401610230565b600582815481106102b5576102b56105a3565b5f9182526020909120015473ffffffffffffffffffffffffffffffffffffffff1692915050565b335f9081526004602052604081206002015460ff1661033d5760405162461bcd60e51b815260206004820152601860248201527f4e6f2073757276657920726573706f6e736520666f756e6400000000000000006044820152606401610230565b50335f9081526004602052604090205460ff1690565b60018160ff161015801561036b575060038160ff1611155b6103b75760405162461bcd60e51b815260206004820152601460248201527f496e76616c696420696e636f6d652072616e67650000000000000000000000006044820152606401610230565b8060ff166001036103db5760018054905f6103d1836105b7565b9190505550610415565b8060ff166002036103f55760028054905f6103d1836105b7565b8060ff166003036104155760038054905f61040f836105b7565b91905055505b335f9081526004602052604090206002015460ff1661049a57600580546001810182555f9182527f036b6384b5eca791c62761152d0c79bb0604c104a5fb6f4eb0703f3154bb3db00180547fffffffffffffffffffffffff000000000000000000000000000000000000000016331790556006805491610494836105b7565b91905055505b6040805160608101825260ff80841682524260208084018281526001858701818152335f81815260049095529388902096518754961660ff1996871617875591519086015551600290940180549415159490931693909317909155915190917fe0761bd9d1832e3fe90645c845f1ddcf3cdcc55a5413982e0fac841c3ec6c62f9161052791815260200190565b60405180910390a26040514281527f98b562529afeac78205df69295fec40fe9481f4bac7c53e6a35be9c9c9dd006f9060200160405180910390a150565b5f60208284031215610575575f5ffd5b5035919050565b5f6020828403121561058c575f5ffd5b813560ff8116811461059c575f5ffd5b9392505050565b634e487b7160e01b5f52603260045260245ffd5b5f600182016105d457634e487b7160e01b5f52601160045260245ffd5b506001019056fea164736f6c634300081b000a",
  "devdoc": {
    "author": "Secure Survey Vault",
    "kind": "dev",
    "methods": {
      "getAllStatistics()": {
        "returns": {
          "range1Count": "Plain count for <$3k",
          "range2Count": "Plain count for $3–6k",
          "range3Count": "Plain count for >=$6k"
        }
      },
      "getIncomeRange()": {
        "returns": {
          "_0": "Plain income range value"
        }
      },
      "getParticipantAtIndex(uint256)": {
        "params": {
          "index": "Index in the participants array"
        },
        "returns": {
          "_0": "Participant address"
        }
      },
      "getRange1Count()": {
        "returns": {
          "_0": "Plain count for range 1"
        }
      },
      "getRange2Count()": {
        "returns": {
          "_0": "Plain count for range 2"
        }
      },
      "getRange3Count()": {
        "returns": {
          "_0": "Plain count for range 3"
        }
      },
      "getTimestamp()": {
        "returns": {
          "_0": "Timestamp value"
        }
      },
      "hasSurveyResponse()": {
        "returns": {
          "_0": "True if user has submitted, false otherwise"
        }
      },
      "submitSurvey(uint8)": {
        "details": "Income ranges: 1 = <$3k, 2 = $3–6k, 3 = >=$6k",
        "params": {
          "_incomeRange": "Plain income range selection (1-3)"
        }
      }
    },
    "title": "Simple Income Range Survey Contract (Non-FHE Version)",
    "version": 1
  },
  "userdoc": {
    "events": {
      "StatisticsUpdated(uint256)": {
        "notice": "Event emitted when statistics are updated"
      },
      "SurveySubmitted(address,uint256)": {
        "notice": "Event emitted when a survey is submitted"
      }
    },
    "kind": "user",
    "methods": {
      "constructor": {
        "notice": "Constructor sets the contract deployer as owner"
      },
      "getAllStatistics()": {
        "notice": "Get all statistics"
      },
      "getIncomeRange()": {
        "notice": "Get income range for the caller"
      },
      "getParticipantAtIndex(uint256)": {
        "notice": "Get participant address at specific index"
      },
      "getRange1Count()": {
        "notice": "Get count for range 1 (<$3k)"
      },
      "getRange2Count()": {
        "notice": "Get count for range 2 ($3–6k)"
      },
      "getRange3Count()": {
        "notice": "Get count for range 3 (>=6k)"
      },
      "getTimestamp()": {
        "notice": "Get submission timestamp for the caller"
      },
      "hasSurveyResponse()": {
        "notice": "Check if user has submitted a survey"
      },
      "owner()": {
        "notice": "Contract owner (deployer)"
      },
      "submitSurvey(uint8)": {
        "notice": "Submit income range selection"
      },
      "totalParticipants()": {
        "notice": "Total number of participants"
      }
    },
    "notice": "Simplified version for networks without FHEVM support",
    "version": 1
  },
  "storageLayout": {
    "storage": [
      {
        "astId": 40037,
        "contract": "contracts/IncomeSurveySimple.sol:IncomeSurveySimple",
        "label": "owner",
        "offset": 0,
        "slot": "0",
        "type": "t_address"
      },
      {
        "astId": 40040,
        "contract": "contracts/IncomeSurveySimple.sol:IncomeSurveySimple",
        "label": "range_1_count",
        "offset": 0,
        "slot": "1",
        "type": "t_uint256"
      },
      {
        "astId": 40042,
        "contract": "contracts/IncomeSurveySimple.sol:IncomeSurveySimple",
        "label": "range_2_count",
        "offset": 0,
        "slot": "2",
        "type": "t_uint256"
      },
      {
        "astId": 40044,
        "contract": "contracts/IncomeSurveySimple.sol:IncomeSurveySimple",
        "label": "range_3_count",
        "offset": 0,
        "slot": "3",
        "type": "t_uint256"
      },
      {
        "astId": 40050,
        "contract": "contracts/IncomeSurveySimple.sol:IncomeSurveySimple",
        "label": "responses",
        "offset": 0,
        "slot": "4",
        "type": "t_mapping(t_address,t_struct(SurveyResponse)40034_storage)"
      },
      {
        "astId": 40054,
        "contract": "contracts/IncomeSurveySimple.sol:IncomeSurveySimple",
        "label": "participants",
        "offset": 0,
        "slot": "5",
        "type": "t_array(t_address)dyn_storage"
      },
      {
        "astId": 40057,
        "contract": "contracts/IncomeSurveySimple.sol:IncomeSurveySimple",
        "label": "totalParticipants",
        "offset": 0,
        "slot": "6",
        "type": "t_uint256"
      }
    ],
    "types": {
      "t_address": {
        "encoding": "inplace",
        "label": "address",
        "numberOfBytes": "20"
      },
      "t_array(t_address)dyn_storage": {
        "base": "t_address",
        "encoding": "dynamic_array",
        "label": "address[]",
        "numberOfBytes": "32"
      },
      "t_bool": {
        "encoding": "inplace",
        "label": "bool",
        "numberOfBytes": "1"
      },
      "t_mapping(t_address,t_struct(SurveyResponse)40034_storage)": {
        "encoding": "mapping",
        "key": "t_address",
        "label": "mapping(address => struct IncomeSurveySimple.SurveyResponse)",
        "numberOfBytes": "32",
        "value": "t_struct(SurveyResponse)40034_storage"
      },
      "t_struct(SurveyResponse)40034_storage": {
        "encoding": "inplace",
        "label": "struct IncomeSurveySimple.SurveyResponse",
        "members": [
          {
            "astId": 40029,
            "contract": "contracts/IncomeSurveySimple.sol:IncomeSurveySimple",
            "label": "income_range",
            "offset": 0,
            "slot": "0",
            "type": "t_uint8"
          },
          {
            "astId": 40031,
            "contract": "contracts/IncomeSurveySimple.sol:IncomeSurveySimple",
            "label": "timestamp",
            "offset": 0,
            "slot": "1",
            "type": "t_uint256"
          },
          {
            "astId": 40033,
            "contract": "contracts/IncomeSurveySimple.sol:IncomeSurveySimple",
            "label": "exists",
            "offset": 0,
            "slot": "2",
            "type": "t_bool"
          }
        ],
        "numberOfBytes": "96"
      },
      "t_uint256": {
        "encoding": "inplace",
        "label": "uint256",
        "numberOfBytes": "32"
      },
      "t_uint8": {
        "encoding": "inplace",
        "label": "uint8",
        "numberOfBytes": "1"
      }
    }
  }
}