{
  "address": "0xf134d704EB207C2b2a93c24c6AA42d57e1A22A41",
  "abi": [
    {
      "inputs": [],
      "stateMutability": "nonpayable",
      "type": "constructor"
    },
    {
      "anonymous": false,
      "inputs": [
        {
          "indexed": false,
          "internalType": "uint256",
          "name": "timestamp",
          "type": "uint256"
        }
      ],
      "name": "StatisticsUpdated",
      "type": "event"
    },
    {
      "anonymous": false,
      "inputs": [
        {
          "indexed": true,
          "internalType": "address",
          "name": "user",
          "type": "address"
        },
        {
          "indexed": false,
          "internalType": "uint256",
          "name": "timestamp",
          "type": "uint256"
        }
      ],
      "name": "SurveySubmitted",
      "type": "event"
    },
    {
      "inputs": [],
      "name": "getAllStatistics",
      "outputs": [
        {
          "internalType": "uint256",
          "name": "range1Count",
          "type": "uint256"
        },
        {
          "internalType": "uint256",
          "name": "range2Count",
          "type": "uint256"
        },
        {
          "internalType": "uint256",
          "name": "range3Count",
          "type": "uint256"
        }
      ],
      "stateMutability": "view",
      "type": "function"
    },
    {
      "inputs": [],
      "name": "getIncomeRange",
      "outputs": [
        {
          "internalType": "uint8",
          "name": "",
          "type": "uint8"
        }
      ],
      "stateMutability": "view",
      "type": "function"
    },
    {
      "inputs": [
        {
          "internalType": "uint256",
          "name": "index",
          "type": "uint256"
        }
      ],
      "name": "getParticipantAtIndex",
      "outputs": [
        {
          "internalType": "address",
          "name": "",
          "type": "address"
        }
      ],
      "stateMutability": "view",
      "type": "function"
    },
    {
      "inputs": [],
      "name": "getRange1Count",
      "outputs": [
        {
          "internalType": "uint256",
          "name": "",
          "type": "uint256"
        }
      ],
      "stateMutability": "view",
      "type": "function"
    },
    {
      "inputs": [],
      "name": "getRange2Count",
      "outputs": [
        {
          "internalType": "uint256",
          "name": "",
          "type": "uint256"
        }
      ],
      "stateMutability": "view",
      "type": "function"
    },
    {
      "inputs": [],
      "name": "getRange3Count",
      "outputs": [
        {
          "internalType": "uint256",
          "name": "",
          "type": "uint256"
        }
      ],
      "stateMutability": "view",
      "type": "function"
    },
    {
      "inputs": [],
      "name": "getTimestamp",
      "outputs": [
        {
          "internalType": "uint256",
          "name": "",
          "type": "uint256"
        }
      ],
      "stateMutability": "view",
      "type": "function"
    },
    {
      "inputs": [],
      "name": "hasSurveyResponse",
      "outputs": [
        {
          "internalType": "bool",
          "name": "",
          "type": "bool"
        }
      ],
      "stateMutability": "view",
      "type": "function"
    },
    {
      "inputs": [],
      "name": "owner",
      "outputs": [
        {
          "internalType": "address",
          "name": "",
          "type": "address"
        }
      ],
      "stateMutability": "view",
      "type": "function"
    },
    {
      "inputs": [],
      "name": "range_1_count",
      "outputs": [
        {
          "internalType": "uint256",
          "name": "",
          "type": "uint256"
        }
      ],
      "stateMutability": "view",
      "type": "function"
    },
    {
      "inputs": [],
      "name": "range_2_count",
      "outputs": [
        {
          "internalType": "uint256",
          "name": "",
          "type": "uint256"
        }
      ],
      "stateMutability": "view",
      "type": "function"
    },
    {
      "inputs": [],
      "name": "range_3_count",
      "outputs": [
        {
          "internalType": "uint256",
          "name": "",
          "type": "uint256"
        }
      ],
      "stateMutability": "view",
      "type": "function"
    },
    {
      "inputs": [
        {
          "internalType": "uint8",
          "name": "_incomeRange",
          "type": "uint8"
        }
      ],
      "name": "submitSurvey",
      "outputs": [],
      "stateMutability": "nonpayable",
      "type": "function"
    },
    {
      "inputs": [],
      "name": "totalParticipants",
      "outputs": [
        {
          "internalType": "uint256",
          "name": "",
          "type": "uint256"
        }
      ],
      "stateMutability": "view",
      "type": "function"
    }
  ],
  "transactionHash": "0x8a464762ba53fe40ff3d1708e1a88869f5cf33e4640f8c7d42ada1002681a49f",
  "args": [],
  "numDeployments": 2,
  "solcInputHash": "5a703c23116de2dca0c2bd8296f0a7f6",
  "bytecode": "0x6080604052348015600e575f5ffd5b505f80546001600160a01b031916331790556106788061002d5f395ff3fe608060405234801561000f575f5ffd5b50600436106100e5575f3560e01c806353be056111610088578063a26dbf2611610063578063a26dbf26146101df578063a76d4c59146101e8578063d5517ce7146101f1578063f4c1115614610206575f5ffd5b806353be05611461019e5780638bbc8ced146101b85780638da5cb5b146101c0575f5ffd5b806324322d73116100c357806324322d73146101325780632b8052e61461013a57806347f8d04a1461014257806351eb455414610166575f5ffd5b806305d428dd146100e957806310f2488b14610113578063188ec3561461012a575b5f5ffd5b335f9081526004602052604090206002015460ff1660405190151581526020015b60405180910390f35b61011c60015481565b60405190815260200161010a565b61011c61020f565b60025461011c565b60015461011c565b6001546002546003546040805193845260208401929092529082015260600161010a565b6101796101743660046105f5565b61028b565b60405173ffffffffffffffffffffffffffffffffffffffff909116815260200161010a565b6101a6610318565b60405160ff909116815260200161010a565b60035461011c565b5f546101799073ffffffffffffffffffffffffffffffffffffffff1681565b61011c60065481565b61011c60035481565b6102046101ff36600461060c565b61038f565b005b61011c60025481565b335f9081526004602052604081206002015460ff166102755760405162461bcd60e51b815260206004820152601860248201527f4e6f2073757276657920726573706f6e736520666f756e64000000000000000060448201526064015b60405180910390fd5b50335f9081526004602052604090206001015490565b6005545f9082106102de5760405162461bcd60e51b815260206004820152601360248201527f496e646578206f7574206f6620626f756e647300000000000000000000000000604482015260640161026c565b600582815481106102f1576102f1610633565b5f9182526020909120015473ffffffffffffffffffffffffffffffffffffffff1692915050565b335f9081526004602052604081206002015460ff166103795760405162461bcd60e51b815260206004820152601860248201527f4e6f2073757276657920726573706f6e736520666f756e640000000000000000604482015260640161026c565b50335f9081526004602052604090205460ff1690565b60018160ff16101580156103a7575060038160ff1611155b6103f35760405162461bcd60e51b815260206004820152601460248201527f496e76616c696420696e636f6d652072616e6765000000000000000000000000604482015260640161026c565b335f9081526004602052604090206002015460ff16156104615760405162461bcd60e51b815260206004820152602360248201527f557365722068617320616c7265616479207375626d697474656420612073757260448201526276657960e81b606482015260840161026c565b8060ff166001036104855760018054905f61047b83610647565b91905055506104bf565b8060ff1660020361049f5760028054905f61047b83610647565b8060ff166003036104bf5760038054905f6104b983610647565b91905055505b600580546001810182555f9182527f036b6384b5eca791c62761152d0c79bb0604c104a5fb6f4eb0703f3154bb3db00180547fffffffffffffffffffffffff00000000000000000000000000000000000000001633179055600680549161052583610647565b90915550506040805160608101825260ff80841682524260208084018281526001858701818152335f81815260049095529388902096518754961660ff1996871617875591519086015551600290940180549415159490931693909317909155915190917fe0761bd9d1832e3fe90645c845f1ddcf3cdcc55a5413982e0fac841c3ec6c62f916105b791815260200190565b60405180910390a26040514281527f98b562529afeac78205df69295fec40fe9481f4bac7c53e6a35be9c9c9dd006f9060200160405180910390a150565b5f60208284031215610605575f5ffd5b5035919050565b5f6020828403121561061c575f5ffd5b813560ff8116811461062c575f5ffd5b9392505050565b634e487b7160e01b5f52603260045260245ffd5b5f6001820161066457634e487b7160e01b5f52601160045260245ffd5b506001019056fea164736f6c634300081b000a",
  "devdoc": {
    "author": "Secure Survey Vault",
    "details": "Plain implementation without encryption for demonstration purposes",
    "kind": "dev",
    "methods": {
      "getAllStatistics()": {
        "returns": {
          "range1Count": "Plain count for <$3k",
          "range2Count": "Plain count for $3–6k",
          "range3Count": "Plain count for >=$6k"
        }
      },
      "getIncomeRange()": {
        "returns": {
          "_0": "Plain income range value"
        }
      },
      "getParticipantAtIndex(uint256)": {
        "params": {
          "index": "Index in the participants array"
        },
        "returns": {
          "_0": "Participant address"
        }
      },
      "getRange1Count()": {
        "returns": {
          "_0": "Plain count for range 1"
        }
      },
      "getRange2Count()": {
        "returns": {
          "_0": "Plain count for range 2"
        }
      },
      "getRange3Count()": {
        "returns": {
          "_0": "Plain count for range 3"
        }
      },
      "getTimestamp()": {
        "returns": {
          "_0": "Timestamp value"
        }
      },
      "hasSurveyResponse()": {
        "returns": {
          "_0": "True if user has submitted, false otherwise"
        }
      },
      "submitSurvey(uint8)": {
        "details": "Income ranges: 1 = <$3k, 2 = $3–6k, 3 = >=$6k",
        "params": {
          "_incomeRange": "Plain income range selection (1-3)"
        }
      }
    },
    "title": "Income Range Survey Contract for Sepolia",
    "version": 1
  },
  "userdoc": {
    "events": {
      "StatisticsUpdated(uint256)": {
        "notice": "Event emitted when statistics are updated"
      },
      "SurveySubmitted(address,uint256)": {
        "notice": "Event emitted when a survey is submitted"
      }
    },
    "kind": "user",
    "methods": {
      "constructor": {
        "notice": "Constructor sets the contract deployer as owner"
      },
      "getAllStatistics()": {
        "notice": "Get all statistics"
      },
      "getIncomeRange()": {
        "notice": "Get income range for the caller"
      },
      "getParticipantAtIndex(uint256)": {
        "notice": "Get participant address at specific index"
      },
      "getRange1Count()": {
        "notice": "Get count for range 1 (<$3k)"
      },
      "getRange2Count()": {
        "notice": "Get count for range 2 ($3–6k)"
      },
      "getRange3Count()": {
        "notice": "Get count for range 3 (>=6k)"
      },
      "getTimestamp()": {
        "notice": "Get submission timestamp for the caller"
      },
      "hasSurveyResponse()": {
        "notice": "Check if user has submitted a survey"
      },
      "owner()": {
        "notice": "Contract owner (deployer)"
      },
      "range_1_count()": {
        "notice": "Plain counters for each income range"
      },
      "submitSurvey(uint8)": {
        "notice": "Submit income range selection"
      },
      "totalParticipants()": {
        "notice": "Total number of participants"
      }
    },
    "notice": "Simplified survey contract for networks without FHEVM support",
    "version": 1
  },
  "storageLayout": {
    "storage": [
      {
        "astId": 39626,
        "contract": "contracts/IncomeSurveySepolia.sol:IncomeSurveySepolia",
        "label": "owner",
        "offset": 0,
        "slot": "0",
        "type": "t_address"
      },
      {
        "astId": 39629,
        "contract": "contracts/IncomeSurveySepolia.sol:IncomeSurveySepolia",
        "label": "range_1_count",
        "offset": 0,
        "slot": "1",
        "type": "t_uint256"
      },
      {
        "astId": 39631,
        "contract": "contracts/IncomeSurveySepolia.sol:IncomeSurveySepolia",
        "label": "range_2_count",
        "offset": 0,
        "slot": "2",
        "type": "t_uint256"
      },
      {
        "astId": 39633,
        "contract": "contracts/IncomeSurveySepolia.sol:IncomeSurveySepolia",
        "label": "range_3_count",
        "offset": 0,
        "slot": "3",
        "type": "t_uint256"
      },
      {
        "astId": 39639,
        "contract": "contracts/IncomeSurveySepolia.sol:IncomeSurveySepolia",
        "label": "responses",
        "offset": 0,
        "slot": "4",
        "type": "t_mapping(t_address,t_struct(SurveyResponse)39623_storage)"
      },
      {
        "astId": 39643,
        "contract": "contracts/IncomeSurveySepolia.sol:IncomeSurveySepolia",
        "label": "participants",
        "offset": 0,
        "slot": "5",
        "type": "t_array(t_address)dyn_storage"
      },
      {
        "astId": 39646,
        "contract": "contracts/IncomeSurveySepolia.sol:IncomeSurveySepolia",
        "label": "totalParticipants",
        "offset": 0,
        "slot": "6",
        "type": "t_uint256"
      }
    ],
    "types": {
      "t_address": {
        "encoding": "inplace",
        "label": "address",
        "numberOfBytes": "20"
      },
      "t_array(t_address)dyn_storage": {
        "base": "t_address",
        "encoding": "dynamic_array",
        "label": "address[]",
        "numberOfBytes": "32"
      },
      "t_bool": {
        "encoding": "inplace",
        "label": "bool",
        "numberOfBytes": "1"
      },
      "t_mapping(t_address,t_struct(SurveyResponse)39623_storage)": {
        "encoding": "mapping",
        "key": "t_address",
        "label": "mapping(address => struct IncomeSurveySepolia.SurveyResponse)",
        "numberOfBytes": "32",
        "value": "t_struct(SurveyResponse)39623_storage"
      },
      "t_struct(SurveyResponse)39623_storage": {
        "encoding": "inplace",
        "label": "struct IncomeSurveySepolia.SurveyResponse",
        "members": [
          {
            "astId": 39618,
            "contract": "contracts/IncomeSurveySepolia.sol:IncomeSurveySepolia",
            "label": "income_range",
            "offset": 0,
            "slot": "0",
            "type": "t_uint8"
          },
          {
            "astId": 39620,
            "contract": "contracts/IncomeSurveySepolia.sol:IncomeSurveySepolia",
            "label": "timestamp",
            "offset": 0,
            "slot": "1",
            "type": "t_uint256"
          },
          {
            "astId": 39622,
            "contract": "contracts/IncomeSurveySepolia.sol:IncomeSurveySepolia",
            "label": "exists",
            "offset": 0,
            "slot": "2",
            "type": "t_bool"
          }
        ],
        "numberOfBytes": "96"
      },
      "t_uint256": {
        "encoding": "inplace",
        "label": "uint256",
        "numberOfBytes": "32"
      },
      "t_uint8": {
        "encoding": "inplace",
        "label": "uint8",
        "numberOfBytes": "1"
      }
    }
  }
}